:020000040800F2
:10000000C00B0020395B0008690800086B08000875
:100010006F08000873080008770800080000000057
:100020000000000000000000000000007B08000845
:100030007D080008000000007F0800088108000813
:10004000535B0008535B0008535B0008535B0008D8
:10005000535B0008535B0008535B0008535B0008C8
:10006000535B0008535B0008535B0008535B0008B8
:10007000535B0008535B0008535B0008535B0008A8
:10008000535B0008535B0008535B0008535B000898
:10009000535B0008535B0008535B0008535B000888
:1000A000535B0008535B0008535B0008535B000878
:1000B000535B0008535B00087D820008535B000817
:1000C000535B0008535B0008535B0008535B000858
:1000D000535B0008AD5A0008535B0008AD5400089C
:1000E000535B0008535B0008535B0008535B000838
:1000F000535B0008535B0008535B0008535B000828
:10010000535B0008535B0008535B0008535B000817
:10011000535B0008535B0008535B0008255400083C
:10012000535B0008535B0008535B0008535B0008F7
:10013000535B0008535B0008535B0008535B0008E7
:10014000535B0008535B0008535B0008535B0008D7
:10015000535B0008535B0008535B0008535B0008C7
:10016000535B0008535B0008535B0008535B0008B7
:10017000535B0008535B0008535B0008535B0008A7
:10018000535B0008535B000800F002F800F0B2F87F
:100190000AA090E8000C82448344AAF10107DA45E2
:1001A00001D100F0A7F8AFF2090EBAE80F0013F082
:1001B000010F18BFFB1A43F00103184704BF0000EA
:1001C00024BF00000A444FF0000C10F8013B13F06C
:1001D000070408BF10F8014B1D1108BF10F8015BA0
:1001E000641E05D010F8016B641E01F8016BF9D193
:1001F00013F0080F1EBF10F8014BAD1C0C1B09D1EA
:100200006D1E58BF01F801CBFAD505E014F8016B5B
:1002100001F8016B6D1EF9D59142D6D370470000ED
:100220000023002400250026103A28BF78C1FBD8FF
:10023000520728BF30C148BF0B6070476E2909F0D4
:100240002E80702908F08D8666290AF09182652932
:100250000AF08E8267290AF08B826129AFF3008051
:1002600003681B0A28BF41F08001692908F0008655
:10027000642908F0FD85752908F0FA856F2909F0D1
:100280002581782908F05986E92909F0C180E429F7
:1002900009F0BE80F52909F0BB80EF2909F0228121
:1002A000F82908F058860368DB0928BF41F080016F
:1002B000632909F03080732909F03580E32909F0BA
:1002C0007583F32909F07A83002070471FB50AF07F
:1002D0004AFA09F0C9FB0400002000210AF06EF878
:1002E000401C6060002000210AF052F8E0601FBD51
:1002F00010B510BD09F08AFB1146FFF7E7FF00F0CB
:100300004AF809F061FC03B4FFF7F2FF03BC05F003
:1003100069FB00001CB505F0F9F901280DD1E4A036
:1003200010210B46C822CDE900108C211E2005F0BB
:1003300039F8E2A008F02AFD0CE0E2A010210B46FB
:10034000C822CDE900108C211E2005F02BF8E0A07A
:1003500008F01CFD1CBD1CB5DF48006868B1DFA0BB
:1003600010210B467822CDE900108C21104605F0B3
:1003700019F8DEA008F00AFD0CE0DFA010210B4602
:100380007822CDE900108C21104605F00BF8DEA094
:1003900008F0FCFC1CBD2DED048B88B00025002668
:1003A0000027A9464FF4A06005F0E6FBA82005F061
:1003B00097FA4FF4E13005F023FB05F073FAD548C6
:1003C00041685420884700F065FB00F083FB01F092
:1003D0008EF94FF47840D0490880D0A010210B4608
:1003E000C822CDE900101E21084604F0DBFFD1A091
:1003F00010210B46C822CDE9001032211E2004F046
:10040000D1FFD2A010210B46C822CDE90010462111
:100410001E2004F0C7FF4FF47A7005F0C3FA1AE00B
:10042000CEA010210B46C822CDE900105A211E2073
:1004300004F0B8FF4FF4FA7005F0B4FACBA0102125
:100440000B46C822CDE900105A211E2004F0AAFF55
:10045000642005F0A7FA05F0EBF80028E0D1C7A06A
:1004600010210B46D222CDE900105A211E2004F0A3
:1004700099FFC9A010210B46C822CDE900106E21BA
:100480001E2004F08FFFC9A010210B46C822CDE921
:100490000010A0211E2004F085FFC6A010210B46ED
:1004A000C822CDE90010B4211E2004F07BFF1F20DC
:1004B00099490880FFF72EFF642005F073FA0020A9
:1004C000BF490880F3E0002000F022FB0446042C22
:1004D0001AD105F01BF90446FF2C2AD00CB90120D3
:1004E00000E0002004461CB9B6A005F04DF902E07A
:1004F000B7A005F049F9FFF70DFFB8A005F044F9E2
:10050000C82005F04FFA14E0012C0FD10DB90120DD
:1005100000E00020054665B94FF6FF70B023F022D9
:10052000A0210090462004F0B0FC02E00A2005F073
:1005300039FAB8F1320F35D12DB33246AAA103A84A
:1005400008F030FC03A810210B46C822CDE90010AA
:10055000A021462004F026FF48460AF09DF841EC11
:10056000190B9FEDA60B53EC102B09F03DFF41EC4E
:10057000180B53EC182BA3A005F02AF8701CC6B278
:10058000632E00DD0026FFF7E6FE4FF00008A548C9
:10059000006808B9012000E00020A2490860A2A07C
:1005A00008F0F4FB8648008800F4004000287AD068
:1005B0004FF6FF704FF4A073F022C82100901E2068
:1005C00004F063FC7E48077800209949C855092F3C
:1005D00001D0082F5AD197A1954808F0B1FD88B9EC
:1005E00000209049091D086001209549C1F8840246
:1005F00000208C491C390860091D0860091D08602D
:100600004FF021098FA18A4808F09AFD88B900208F
:100610008449091D08608A49C1F884020120814982
:100620001C3908600020091D0860091D08604FF092
:10063000320987A17E4808F083FD88B900207949F6
:10064000091D08607E49C1F8840276491C3908609A
:100650000120091D08600020091D08604FF05A099B
:100660007EA1734808F06CFD80B900206D49091D1A
:1006700008607349C1F884026A491C390860091D81
:1006800008600120091D08604FF0780968481021B2
:100690007723D122CDE90010C8211E2004F082FE6C
:1006A00000204749088008F1010000F0FF080AE730
:1006B000524F4C453A4D6173746572004D617374CD
:1006C00065720000524F4C453A536C6176652000CC
:1006D000536C617665000000000241425354413A78
:1006E000436F6E6E6563746564200000C1ACBDD35A
:1006F000B3C9B9A6000000005354413A446973637A
:100700006F6E6E6563740000CEB4C1ACBDD3B3C967
:10071000B9A600007400002016000020414C494595
:100720004E54454B2053544D33324634205E5F5E69
:10073000000000004843303520424C5545544F4F8F
:10074000544820434F4D20544553540041544F4D7D
:1007500040414C49454E54454B00000041544B2DFF
:1007600048433035204572726F722100506C6561CC
:10077000736520436865636B212121004B45595FF8
:1007800055503A524F4C45204B4559303A53454EFF
:10079000442F53544F50000041544B2D48433035A3
:1007A000205374616E6462792100000053656E64A9
:1007B0003A000000526563656976653A0000000002
:1007C0001A00002041542B524F4C453D3000000090
:1007D00041542B524F4C453D3100000041542B52A7
:1007E0004553455400000000414C49454E54454B8B
:1007F00020484330352025640D0A00000000000029
:10080000000024405468652063757272656E742020
:10081000766F6C746167652069733A20252E326C9F
:10082000660D0A00A4824242216C6564300000001B
:10083000080300202B4C454431204F4E000000009F
:10084000008042422B4C454431204F464600000078
:100850002B4A445133204F4E000000002B4A445194
:1008600034204F4E00000000704700BFFEE700BF7D
:10087000FEE700BFFEE700BFFEE770477047704726
:10088000704700000CB50020019000907648006889
:1008900040F480307449086000BF7348006800F479
:1008A000003000900198401C0190009818B9019800
:1008B000B0F5A04FF1D16C48006800F4003010B1E1
:1008C0000120009001E0002000900098012846D10E
:1008D00065484030006840F080506349403108600E
:1008E0006248006840F44040604908605E48083053
:1008F00000685D49083108600846006840F400401F
:1009000008600846006840F4A05008605848091F75
:100910000860081F006840F08070091F086000BF71
:100920005148006800F000700028F9D040F20570CE
:10093000504908604C480830006820F003004A49DC
:10094000083108600846006840F00200086000BFF7
:1009500045480830006800F00C000828F8D10CBDAC
:1009600010B54548006840F47000434908603E48AF
:10097000006840F001003C49086000203A49083115
:100980000860394800683D490840374908603C48DC
:10099000091D0860081F006820F48020091F0860F6
:1009A000002031490C310860FFF76CFF4FF0006008
:1009B00031498039086010BD70B500200022022343
:1009C00000240221284D08352D6805F00C0020B1C7
:1009D000042806D0082834D107E02A4D2A4E356075
:1009E00033E02A4D284E35602FE01F4D2D1D2D6818
:1009F000C5F380541C4D2D1D2D6805F03F0154B1E9
:100A0000224DB5FBF1F5184E361D3668C6F3881633
:100A100005FB06F209E01B4DB5FBF1F5124E361D44
:100A20003668C6F3881605FB06F20F4D2D1D2D689E
:100A3000C5F301456D1C6B00B2FBF3F5124E35603A
:100A400003E0104D104E356000BF00BF064D083565
:100A50002D68C5F303150E4E705D0B4D2D68C54016
:100A6000094E356070BD0000003802400070004043
:100A700008544007003C024088ED00E0FFFFF6FE0E
:100A8000103000240024F4000000002000127A003E
:100A9000040000201CB50121202005F0E5FE4FF4E4
:100AA000C060009001208DF8040000208DF8060041
:100AB00003208DF8050001208DF8070069460448E1
:100AC00005F050F94FF4C061014805F0C7F91CBDAD
:100AD000001402401CB50121112005F0C5FE1C20A8
:100AE000009000208DF8040003208DF805000120FF
:100AF0008DF807006946354805F034F9012000906B
:100B000002208DF807006946314805F02BF91CBD1D
:100B100010B5044614B101202E4908702D48007804
:100B2000002837D01021294805F07EF978B1082136
:100B3000264805F079F950B10421244805F074F9EC
:100B400028B10121224805F06FF9012822D10A209D
:100B500004F028FF00201F49087010211B4805F0F1
:100B600063F908B9012010BD0821184805F05CF9A7
:100B700008B90220F7E70421144805F055F908B92F
:100B80000320F0E70121124805F04EF901281BD19E
:100B90000420E8E710210D4805F046F9012813D19B
:100BA00008210A4805F040F901280DD10421074821
:100BB00005F03AF9012807D10121054805F034F97B
:100BC00010B90120034908700020CCE70010024052
:100BD000000002401400002001B5BDF800000090A4
:100BE000BDF80000F749088008BD01B5BDF8000058
:100BF0000090BDF80000F349891C088008BD08B5C5
:100C0000F048801C00880090BDF8000008BD03B5C6
:100C1000BDF80000EB490880BDF804004FF0D84152
:100C2000A1F880000CBD01B5BDF80000FFF7D4FFAE
:100C3000052004F06FFEFFF7E2FF08BDE2480089DF
:100C4000E04908807047DF49891C0880704730B54B
:100C5000014601F01F04C1F34513CA0AE50205EB82
:100C600043151544A8B230BD00BF0100A0F1010238
:100C7000D0B2FAD1704730B504460D46D2488088CC
:100C800049F24131884205D0CF48808845F2103181
:100C9000884214D1CC494889FFF79EFF2012FFF704
:100CA000A4FFE0B2FFF7A1FFC7498889FFF794FFCF
:100CB0002812FFF79AFFE8B2FFF797FF5DE0C248FE
:100CC000808846F6040188421DD1BF4880790128FA
:100CD00004D1BD480088401E001B84B2BA4948892F
:100CE000FFF77AFF2012FFF780FFE0B2FFF77DFFEA
:100CF000B5498889FFF770FF2812FFF776FFE8B241
:100D0000FFF773FF39E0B048808845F21051884200
:100D100020D1AD494889FFF75FFF2012FFF765FF3B
:100D2000A9494989491C88B2FFF756FFE0B2FFF78D
:100D30005CFFA5498889FFF74FFF2812FFF755FF91
:100D4000A1498989491C88B2FFF746FFE8B2FFF73D
:100D50004CFF12E09C488079012804D19A48008811
:100D6000401E001B84B2984948892146FFF74FFF77
:100D7000954988892946FFF74AFF30BD3EB50446AC
:100D80000D4600200290019000908F480088A042FC
:100D900003DD8D484088A84201DC00203EBD294685
:100DA0002046FFF768FF8848808849F24131884231
:100DB0000BD08548808846F60401884205D08248D9
:100DC000808845F21031884203D12E20FFF704FFBE
:100DD0000DE07D48808845F21051884204D14FF4DF
:100DE0003850FFF7F9FE02E02220FFF7F5FE7648C3
:100DF000808849F22031884202D10220FFF734FF77
:100E0000FFF7FDFE0220FFF72FFFFFF7F8FE02902D
:100E10006D48808849F2413188420BD06A48808809
:100E200045F21031884205D06748808845F210515C
:100E3000884210D10220FFF717FFFFF7E0FE009075
:100E4000BDF80800C0B20190BDF804004FF6FF7174
:100E500001EA002001905C48808849F225318842EF
:100E600016D05948808844F23551884210D05648EF
:100E70008088091F88420BD0534880884BF2055167
:100E8000884205D0504880884CF20551884202D1F2
:100E9000BDF8080082E74C48808849F24131884219
:100EA0000BD04948808845F21031884205D0464829
:100EB000808845F2105188420DD1BDF80800C0125B
:100EC000C002BDF80410891240EA4110BDF80010BC
:100ED00040EAE12062E7BDF80800FFF7B8FE5DE7F1
:100EE00000B53948808849F2413188420BD03648F4
:100EF000808846F60401884205D03348808845F250
:100F00001031884203D12920FFF766FE0FE02E48FA
:100F1000808845F21051884204D14FF42450FFF7E5
:100F20005BFE04E040F273110720FFF770FE00BD86
:100F300000B52548808849F2413188420BD02248CB
:100F4000808846F60401884205D01F48808845F213
:100F50001031884203D12820FFF73EFE0EE01A48E8
:100F6000808845F21051884204D14FF42050FFF799
:100F700033FE03E000210720FFF749FE00BD2DE905
:100F8000F04305460024A1460F488079012822D16C
:100F90000D48808846F6040188421CD0082D19D2DD
:100FA000DFE805F00406080A0C0E1416062511E009
:100FB00007250FE004250DE005250BE0012509E0DC
:100FC000002507E07E00006C68010020032501E099
:100FD000022500BF00BFFE48808849F241318842A7
:100FE00011D0FB48808846F6040188420BD0F848AF
:100FF000808845F21031884205D0F548808845F256
:101000001051884278D1082D1CD2DFE805F0040683
:10101000090C0F12151800BF14E044F0800411E011
:1010200044F040040EE044F0C0040BE044F020041F
:1010300008E044F0600405E044F0A00402E044F05D
:10104000E00400BF00BFE248808845F210518842AA
:1010500002D14FF4585901E04FF03609DC4880883E
:1010600045F21031884207D0D948808845F21051A6
:10107000884201D044F00804D548808846F604012F
:10108000884201D144F0020421464846FFF7BFFDE3
:1010900004F0200018B9CE48807901280FD1CC483F
:1010A0000088CB494988884218DAC948B0F80080DE
:1010B0004088C74908800846A0F802800EE0C4486E
:1010C0000088C3494988884208DDC148B0F80080DB
:1010D0004088BF4908800846A0F80280BC48807953
:1010E00001280AD1BA48808846F60401884204D013
:1010F000B7484688078803E07AE0B54806884788FD
:10110000B348808845F2105188424AD1B049488995
:10111000FFF762FD0020FFF768FDAD494989491CD2
:1011200088B2FFF759FD0020FFF75FFDA849498904
:10113000891C88B2FFF750FD711EC1F30F20FFF725
:1011400054FDA3494989C91C88B2FFF745FD711EAA
:10115000C8B2FFF74AFD9E498889FFF73DFD002090
:10116000FFF743FD9A498989491C88B2FFF734FD8E
:101170000020FFF73AFD96498989891C88B2FFF75C
:101180002BFD791EC1F30F20FFF72FFD90498989B0
:10119000C91C88B2FFF720FD791EC8B2FFF725FDF4
:1011A0005AE08B494889FFF717FD0020FFF71DFD26
:1011B0000020FFF71AFD711EC1F30F20FFF715FD88
:1011C000711EC8B2FFF711FD81498889FFF704FD40
:1011D0000020FFF70AFD0020FFF707FD791EC1F38D
:1011E0000F20FFF702FD791EC8B2FFF7FEFC33E0C7
:1011F000082D1CD2DFE805F004070A0D0F121518A0
:1012000044F0300413E044F0100410E044F02004F3
:101210000DE000BF0BE044F0380408E044F028047F
:1012200005E044F0180402E044F0080400BF00BFE9
:101230006748808848F68911884205D14FF0110926
:1012400046F24000044303E04FF0030944F48054A5
:1012500021464846FFF7DBFCBDE8F08330B5044685
:101260000D4629462046FFF706FDFFF7E7FC5948E3
:1012700000885949088030BD70B504460D461646B1
:101280005348808849F24131884205D050488088CF
:1012900045F21031884214D14D494889FFF79CFC32
:1012A0002012FFF7A2FCE0B2FFF79FFC48498889B3
:1012B000FFF792FC2812FFF798FCE8B2FFF795FCC5
:1012C0005DE04348808845F21051884220D1404972
:1012D0004889FFF781FC2012FFF787FC3C494989C8
:1012E000491C88B2FFF778FCE0B2FFF77EFC384972
:1012F0008889FFF771FC2812FFF777FC3449898948
:10130000491C88B2FFF768FCE8B2FFF76EFC36E0D4
:101310002F48808846F6040188421DD12C488079E8
:10132000012804D12A480088401E001B84B22849A5
:101330004889FFF751FC2012FFF757FCE0B2FFF796
:1013400054FC23498889FFF747FC2812FFF74DFC1E
:10135000E8B2FFF74AFC12E01D488079012804D169
:101360001B480088401E001B84B219494889214649
:10137000FFF74DFC164988892946FFF748FC1448B9
:1013800000891549891E08804FF0D840A0F8806078
:1013900070BD10B50446002C59D10D498871F0205C
:1013A00008804FF4A07048800846808849F2413197
:1013B00088420BD00648808846F60401884205D052
:1013C0000348808845F21031884221D12C2005E065
:1013D00068010020160000208000006CFE49088192
:1013E0002A2048812B2088810846808846F60401FF
:1013F000884205D0F848808845F21031884206D1ED
:101400004FF4A070F44908804FF4F070488079E000
:10141000F148808845F21051884210D14FF4305085
:10142000ED4908814FF4285048814FF42C508881B1
:101430004FF4F07008804FF44870488062E022203A
:10144000E549088120204881212088815AE0012037
:10145000E14988714FF4A0700880F0204880084668
:10146000808849F24131884205D0DB48808845F2C6
:101470001031884207D12C20D74908812A20488181
:101480002B2088812BE0D448808846F604018842CE
:1014900007D12C20D04908812B2048812A2088811F
:1014A0001DE0CD48808845F21051884210D14FF49C
:1014B0003050C94908814FF4285048814FF42C50CE
:1014C00088814FF4487008804FF4F070488006E03F
:1014D0002220C14908812120488120208881BE48DE
:1014E000808846F60401884205D0BB48808845F2D2
:1014F0001031884206D14FF4F070B74908804FF49C
:10150000A07048800020FFF73AFD10BD2DE9FF4F85
:1015100004460D4616461F46A019401E86B2E8191D
:10152000401E87B2AC48808849F2413188420BD0D6
:10153000A948808845F21031884205D0A6488088A5
:1015400046F60401884220D1A3494889FFF744FBAD
:101550002012FFF74AFBE0B2FFF747FB3012FFF71C
:1015600044FBF0B2FFF741FB9B498889FFF734FB4E
:101570002812FFF73AFBE8B2FFF737FB3812FFF704
:1015800034FBF8B2FFF731FB7DE09348808845F2E9
:101590001051884244D190494889FFF71DFB201221
:1015A000FFF723FB8C494989491C88B2FFF714FBDC
:1015B000E0B2FFF71AFB88494989891C88B2FFF716
:1015C0000BFB3012FFF711FB83494989C91C88B214
:1015D000FFF702FBF0B2FFF708FB7F498889FFF7AE
:1015E000FBFA2812FFF701FB7B498989491C88B265
:1015F000FFF7F2FAE8B2FFF7F8FA77498989891C10
:1016000088B2FFF7E9FA3812FFF7EFFA72498989D1
:10161000C91C88B2FFF7E0FAF8B2FFF7E6FA32E049
:101620006D48807901280ED1A846B9466A480088DD
:10163000801B401E1FFA80FA67480088001B401E6E
:101640001FFA80FB03E0A046B146AA46BB465020E5
:101650000390512002905220019053200090414667
:101660000398FFF7D4FA49460298FFF7D0FA51469B
:101670000198FFF7CCFA59460098FFF7C8FA2946B7
:101680002046FFF7F8FABDE8FF8F70B50446002644
:1016900051480588408845434F48808846F60401F4
:1016A000884216D14C488079012812D100204A493D
:1016B00088712A2048812B20888100210846FFF765
:1016C000DAFA0120444988712B2048812A20888138
:1016D00003E000210846FFF7CEFAFFF7AFFA002635
:1016E00002E03E480480761CAE42FAD370BD00B5DD
:1016F000A1B00020209001217A2005F0B5F8012149
:10170000084605F0E9F84FF400401E9001208DF8DE
:101710007C0000208DF87E0002208DF87D000120E5
:101720008DF87F001EA92E4804F01CFB4CF233708C
:101730001E9002208DF87C0000208DF87E00032092
:101740008DF87D0001208DF87F001EA9254804F04A
:1017500009FB4FF680701E9002208DF87C0000205F
:101760008DF87E0003208DF87D0001208DF87F002C
:101770001EA91D4804F0F6FA4FF480501E90022076
:101780008DF87C0000208DF87E0003208DF87D0010
:1017900001208DF87F001EA9144804F0E3FA4FF4ED
:1017A00080501E9002208DF87C0000208DF87E0075
:1017B00003208DF87D0001208DF87F001EA90C48C4
:1017C00004F0D0FA0C220021064804F056FB0C224B
:1017D000012104480EE00000680100208000006C38
:1017E00000040240000C02400010024000140240BD
:1017F0000018024004F041FB0C220421FE4804F0D2
:101800003CFB0C220521FC4804F037FB0C2208218C
:10181000F94804F032FB0C220921F74804F02DFBB3
:101820000C220A21F44804F028FB0C220E21F24875
:1018300004F023FB0C220F21EF4804F01EFB0C22C6
:101840000721EE4804F019FB0C220821EB4804F0B4
:1018500014FB0C220921E94804F00FFB0C220A2199
:10186000E64804F00AFB0C220B21E44804F005FBD7
:101870000C221146E14804F000FB0C220D21DF4848
:1018800004F0FBFA0C220E21DC4804F0F6FA0C22DC
:101890000F21DA4804F0F1FA0C221146D84804F07E
:1018A000ECFA0C221146D74804F0E7FA0F20089012
:1018B0000020099018200A9000200B900C900D90A9
:1018C0000E90082001900020029008200390002034
:1018D000049005900690079006200F90002010902D
:1018E00011901020129000201390159014901690D3
:1018F00017904FF480501890002019904FF48040BA
:101900001A9000201B9008A81C9001A81D900FA8F9
:1019100004F007FB0121062004F08EFB322004F0C6
:1019200041F801210020FFF772F9322004F03AF863
:101930000020FFF778F9B449888008468088FF289E
:101940000ADB084680884FF6FF71884204D0AE4813
:101950008088B0F5134F7CD1D320FFF73DF9FFF716
:101960004EF9A9498880FFF74AF9A7498880FFF70F
:1019700046F9A5498880084680884FF6FF7101EA3C
:101980000020A1498880FFF73AF99F4989880843D8
:101990009D4988800846808849F24131884278D044
:1019A000BF20FFF719F9FFF72AF997498880FFF759
:1019B00026F995498880FFF722F993498880FFF737
:1019C0001EF991498880084680884FF6FF7101EA28
:1019D00000208D498880FFF712F98B4989880843D8
:1019E000894988800846808846F60401884250D09C
:1019F000D420FFF7F1F8FFF702F983498880FFF759
:101A0000FEF881498880FFF7FAF87F498880084608
:101A100080884FF6FF7101EA00207B498880FFF73C
:101A2000EEF8794989880843774988800846808894
:101A300045F2103188422CD04FF45A40FFF7CCF8D1
:101A4000FFF7DDF8704988804FF45B40FFF7C4F87A
:101A500000E01EE0FFF7D3F86B49888008468088D5
:101A60004FF6FF7101EA0020674988804FF45C401F
:101A7000FFF7B2F8FFF7C3F8634989880843624962
:101A8000888008468088B0F5004F02D145F210509A
:101A900088805D48808849F2413188420BD05A489D
:101AA000808845F21031884205D05748808845F239
:101AB000105188421DD15548006820F00F004FF0AA
:101AC0002041C1F81C010846D0F81C0120F47060C8
:101AD000C1F81C010846D0F81C0140F00300C1F811
:101AE0001C010846D0F81C0140F40070C1F81C012C
:101AF00028E04548808846F60401884205D04248DF
:101B000080884CF2055188421CD14048006820F082
:101B10000F004FF02041C1F81C010846D0F81C010D
:101B200020F47060C1F81C010846D0F81C0140F098
:101B30000A00C1F81C010846D0F81C0140F44060BE
:101B4000C1F81C013048818831A007F01FF92E48E8
:101B5000808849F2413188427ED1CF20FFF73CF89E
:101B60000020FFF742F82098401C2090C120FFF78A
:101B70003CF83020FFF739F8ED20FFF72DF864200E
:101B8000FFF733F80320FFF730F81220FFF72DF8A6
:101B90008120FFF72AF8E820FFF71EF88520FFF7DD
:101BA00024F81020FFF721F87A20FFF71EF8CB2049
:101BB000FFF712F83920FFF718F82C20FFF715F877
:101BC0000020FFF712F83420FFF70FF80220FFF78C
:101BD0000CF8F720FFF700F82020FFF706F8EA20BE
:101BE000FEF7FAFF0020FFF700F80020FEF7FDFFE8
:101BF000C020FEF7F1FF13E0000C0240001002408D
:101C00000014024000180240680100201C0100A0DE
:101C1000204C43442049443A25780D0A0000000036
:101C20001B20FEF7E2FFC120FEF7D6FF0120FEF7E2
:101C3000DCFFC520FEF7D0FF3020FEF7D6FF3020B6
:101C4000FEF7D3FFC720FEF7C7FFB720FEF7CDFF93
:101C50003620FEF7C1FF00E0AFE04820FEF7C5FFE9
:101C60003A20FEF7B9FF5520FEF7BFFFB120FEF77F
:101C7000B3FF0020FEF7B9FF1A20FEF7B6FFB6202B
:101C8000FEF7AAFF0A20FEF7B0FFA220FEF7ADFF85
:101C9000F220FEF7A1FF0020FEF7A7FF2620FEF7A7
:101CA0009BFF0120FEF7A1FFE020FEF795FF0F202C
:101CB000FEF79BFF2A20FEF798FF2820FEF795FFEE
:101CC0000820FEF792FF0E20FEF78FFF0820FEF798
:101CD0008CFF5420FEF789FFA920FEF786FF4320E2
:101CE000FEF783FF0A20FEF780FF0F20FEF77DFF3F
:101CF0000020FEF77AFF0020FEF777FF0020FEF7B6
:101D000074FF0020FEF771FFE120FEF765FF002061
:101D1000FEF76BFF1520FEF768FF1720FEF765FF43
:101D20000720FEF762FF1120FEF75FFF0620FEF797
:101D30005CFF2B20FEF759FF5620FEF756FF3C2094
:101D4000FEF753FF0520FEF750FF1020FEF74DFF72
:101D50000F20FEF74AFF3F20FEF747FF3F20FEF728
:101D600044FF0F20FEF741FF2B20FEF735FF002038
:101D7000FEF73BFF0020FEF738FF0120FEF735FF9E
:101D80003F20FEF732FF2A20FEF726FF0020FEF755
:101D90002CFF0020FEF729FF0020FEF726FFEF2092
:101DA000FEF723FF1120FEF717FF782003F0FAFD5E
:101DB0002920FEF711FF03F05CB8FE48808846F644
:101DC000040188427ED11120FEF706FF142003F0A3
:101DD000E9FDD020FEF700FF0720FEF706FF4220B6
:101DE000FEF703FF1D20FEF700FFD120FEF7F4FEF3
:101DF0000020FEF7FAFE1A20FEF7F7FE0920FEF794
:101E0000F4FED220FEF7E8FE0120FEF7EEFE2220CF
:101E1000FEF7EBFEC020FEF7DFFE1020FEF7E5FE2A
:101E20003B20FEF7E2FE0020FEF7DFFE0220FEF779
:101E3000DCFE1120FEF7D9FEC520FEF7CDFE032003
:101E4000FEF7D3FEC820FEF7C7FE0020FEF7CDFE4A
:101E50002520FEF7CAFE2120FEF7C7FE0520FEF76B
:101E6000C4FE0020FEF7C1FE0A20FEF7BEFE65207C
:101E7000FEF7BBFE2520FEF7B8FE7720FEF7B5FE85
:101E80005020FEF7B2FE0F20FEF7AFFE0020FEF757
:101E9000ACFEF820FEF7A0FE0120FEF7A6FEFE2015
:101EA000FEF79AFE0020FEF7A0FE0220FEF79DFE40
:101EB0002020FEF791FE3620FEF78EFE0820FEF76A
:101EC00094FE00E02AE03A20FEF786FE5520FEF759
:101ED0008CFE2B20FEF780FE0020FEF786FE002001
:101EE000FEF783FE0120FEF780FE3F20FEF77DFE19
:101EF0002A20FEF771FE0020FEF777FE0020FEF795
:101F000074FE0120FEF771FEDF20FEF76EFE7820E2
:101F100003F048FD2920FEF75FFE4CE7A5488088C6
:101F200045F21031884240F07C87ED20FEF754FEE8
:101F30000120FEF75AFEFE20FEF757FEEE20FEF7C8
:101F40004BFEDE20FEF751FE2120FEF74EFEF12073
:101F5000FEF742FE0120FEF748FEDF20FEF73CFEC2
:101F60001020FEF742FEC420FEF736FE8F20FEF75B
:101F70003CFEC620FEF730FE0020FEF736FEE220D3
:101F8000FEF733FEE220FEF730FEE220FEF72DFEE4
:101F9000BF20FEF721FEAA20FEF727FEB020FEF7A5
:101FA0001BFE0D20FEF721FE0020FEF71EFE0D2079
:101FB000FEF71BFE0020FEF718FE1120FEF715FEAF
:101FC0000020FEF712FE1920FEF70FFE0020FEF79C
:101FD0000CFE2120FEF709FE0020FEF706FE2D2054
:101FE000FEF703FE0020FEF700FE3D20FEF7FDFD9C
:101FF0000020FEF7FAFD5D20FEF7F7FD0020FEF75A
:10200000F4FD5D20FEF7F1FD0020FEF7EEFDB120AE
:10201000FEF7E2FD8020FEF7E8FD0020FEF7E5FD7B
:102020008B20FEF7E2FD0020FEF7DFFD9620FEF795
:10203000DCFD0020FEF7D9FDB220FEF7CDFD00202B
:10204000FEF7D3FD0020FEF7D0FD0220FEF7CDFD08
:102050000020FEF7CAFD0320FEF7C7FD0020FEF7B3
:10206000C4FDB320FEF7B8FD0020FEF7BEFD002042
:10207000FEF7BBFD0020FEF7B8FD0020FEF7B5FD22
:102080000020FEF7B2FD0020FEF7AFFD0020FEF7B6
:10209000ACFD0020FEF7A9FD0020FEF7A6FD002004
:1020A000FEF7A3FD0020FEF7A0FD0020FEF79DFD3A
:1020B0000020FEF79AFD0020FEF797FD0020FEF7B6
:1020C00094FD0020FEF791FD0020FEF78EFD00201C
:1020D000FEF78BFD0020FEF788FD0020FEF785FD52
:1020E0000020FEF782FD0020FEF77FFD0020FEF7B6
:1020F0007CFD0020FEF779FDB420FEF76DFD8B20FE
:10210000FEF773FD0020FEF770FD9620FEF76DFDD3
:102110000020FEF76AFDA120FEF767FD0020FEF714
:1021200064FDB520FEF758FD0220FEF75EFD00209D
:10213000FEF75BFD0320FEF758FD0020FEF755FD7E
:102140000420FEF752FD0020FEF74FFDB620FEF7FB
:1021500043FD0020FEF749FD0020FEF746FDB720B5
:10216000FEF73AFD0020FEF740FD0020FEF73DFDA2
:102170003F20FEF73AFD0020FEF737FD5E20FEF718
:1021800034FD0020FEF731FD6420FEF72EFD002017
:10219000FEF72BFD8C20FEF728FD0020FEF725FD25
:1021A000AC20FEF722FD0020FEF71FFDDC20FEF72D
:1021B0001CFD01E0680100200020FEF716FD7020E4
:1021C000FEF713FD0020FEF710FD9020FEF70DFD39
:1021D0000020FEF70AFDEB20FEF707FD0020FEF7CA
:1021E00004FDDC20FEF701FD0020FEF7FEFCB82018
:1021F000FEF7F2FC0020FEF7F8FC0020FEF7F5FCED
:102200000020FEF7F2FC0020FEF7EFFC0020FEF7B6
:10221000ECFC0020FEF7E9FC0020FEF7E6FC0020C5
:10222000FEF7E3FCBA20FEF7D7FC2420FEF7DDFC26
:102230000020FEF7DAFC0020FEF7D7FC0020FEF7B6
:10224000D4FCC120FEF7C8FC2020FEF7CEFC002005
:10225000FEF7CBFC5420FEF7C8FC0020FEF7C5FCBF
:10226000FF20FEF7C2FC0020FEF7BFFCC220FEF7F5
:10227000B3FC0A20FEF7B9FC0020FEF7B6FC0420F0
:10228000FEF7B3FC0020FEF7B0FCC320FEF7A4FC71
:102290003C20FEF7AAFC0020FEF7A7FC3A20FEF740
:1022A000A4FC0020FEF7A1FC3920FEF79EFC0020D4
:1022B000FEF79BFC3720FEF798FC0020FEF795FC0C
:1022C0003C20FEF792FC0020FEF78FFC3620FEF744
:1022D0008CFC0020FEF789FC3220FEF786FC0020F3
:1022E000FEF783FC2F20FEF780FC0020FEF77DFC2C
:1022F0002C20FEF77AFC0020FEF777FC2920FEF761
:1023000074FC0020FEF771FC2620FEF76EFC002016
:10231000FEF76BFC2420FEF768FC0020FEF765FC4E
:102320002420FEF762FC0020FEF75FFC2320FEF76E
:102330005CFC0020FEF759FC3C20FEF756FC002018
:10234000FEF753FC3620FEF750FC0020FEF74DFC54
:102350003220FEF74AFC0020FEF747FC2F20FEF754
:1023600044FC0020FEF741FC2C20FEF73EFC002040
:10237000FEF73BFC2920FEF738FC0020FEF735FC79
:102380002620FEF732FC0020FEF72FFC2420FEF76B
:102390002CFC0020FEF729FC2420FEF726FC002060
:1023A000FEF723FC2320FEF720FC0020FEF71DFC97
:1023B000C420FEF711FC6220FEF717FC0020FEF798
:1023C00014FC0520FEF711FC0020FEF70EFC842013
:1023D000FEF70BFC0020FEF708FCF020FEF705FCE2
:1023E0000020FEF702FC1820FEF7FFFB0020FEF79E
:1023F000FCFBA420FEF7F9FB0020FEF7F6FB1820FB
:10240000FEF7F3FB0020FEF7F0FB5020FEF7EDFB9C
:102410000020FEF7EAFB0C20FEF7E7FB0020FEF7AA
:10242000E4FB1720FEF7E1FB0020FEF7DEFB952022
:10243000FEF7DBFB0020FEF7D8FBF320FEF7D5FB11
:102440000020FEF7D2FBE620FEF7CFFB0020FEF7D0
:10245000CCFBC520FEF7C0FB3220FEF7C6FB0020F8
:10246000FEF7C3FB4420FEF7C0FB0020FEF7BDFBD8
:102470006520FEF7BAFB0020FEF7B7FB7620FEF7DB
:10248000B4FB0020FEF7B1FB8820FEF7AEFB002076
:10249000FEF7ABFBC620FEF79FFB2020FEF7A5FB57
:1024A0000020FEF7A2FB1720FEF79FFB0020FEF79F
:1024B0009CFB0120FEF799FB0020FEF796FBC7204E
:1024C000FEF78AFB0020FEF790FB0020FEF78DFB55
:1024D0000020FEF78AFB0020FEF787FBC820FEF7EE
:1024E0007BFB0020FEF781FB0020FEF77EFB002037
:1024F000FEF77BFB0020FEF778FBC920FEF76CFBA4
:102500000020FEF772FB0020FEF76FFB0020FEF7B5
:102510006CFB0020FEF769FB0020FEF766FB002045
:10252000FEF763FB0020FEF760FB0020FEF75DFB7B
:102530000020FEF75AFB0020FEF757FB0020FEF7B5
:1025400054FB0020FEF751FB0020FEF74EFB00205D
:10255000FEF74BFB0020FEF748FB0020FEF745FB93
:10256000E020FEF739FB1620FEF73FFB0020FEF7C8
:102570003CFB1C20FEF739FB0020FEF736FB212038
:10258000FEF733FB0020FEF730FB3620FEF72DFB75
:102590000020FEF72AFB4620FEF727FB0020FEF76F
:1025A00024FB5220FEF721FB0020FEF71EFB6420D7
:1025B000FEF71BFB0020FEF718FB7A20FEF715FB49
:1025C0000020FEF712FB8B20FEF70FFB0020FEF72A
:1025D0000CFB9920FEF709FB0020FEF706FBA82064
:1025E000FEF703FB0020FEF700FBB920FEF7FDFA23
:1025F0000020FEF7FAFAC420FEF7F7FA0020FEF7F3
:10260000F4FACA20FEF7F1FA0020FEF7EEFAD22023
:10261000FEF7EBFA0020FEF7E8FAD920FEF7E5FA1C
:102620000020FEF7E2FAE020FEF7DFFA0020FEF7D6
:10263000DCFAF320FEF7D9FA0020FEF7D6FAE12003
:10264000FEF7CAFA1620FEF7D0FA0020FEF7CDFA00
:102650001C20FEF7CAFA0020FEF7C7FA2220FEF778
:10266000C4FA0020FEF7C1FA3620FEF7BEFA0020B9
:10267000FEF7BBFA4520FEF7B8FA0020FEF7B5FAE0
:102680005220FEF7B2FA0020FEF7AFFA6420FEF700
:10269000ACFA0020FEF7A9FA7A20FEF7A6FA00208D
:1026A000FEF7A3FA8B20FEF7A0FA0020FEF79DFAB2
:1026B0009920FEF79AFA0020FEF797FAA820FEF775
:1026C00094FA0020FEF791FAB920FEF78EFA002066
:1026D000FEF78BFAC420FEF788FA0020FEF785FA91
:1026E000CA20FEF782FA0020FEF77FFAD220FEF71A
:1026F0007CFA0020FEF779FAD820FEF776FA00205F
:10270000FEF773FAE020FEF770FA0020FEF76DFA8C
:10271000F320FEF76AFA0020FEF767FAE220FEF7E0
:102720005BFA0520FEF761FA0020FEF75EFA0B2047
:10273000FEF75BFA0020FEF758FA1B20FEF755FA69
:102740000020FEF752FA3420FEF74FFA0020FEF781
:102750004CFA4420FEF749FA0020FEF746FA4F20D3
:10276000FEF743FA0020FEF740FA6120FEF73DFA3B
:102770000020FEF73AFA7920FEF737FA0020FEF73C
:1027800034FA8820FEF731FA0020FEF72EFA97205F
:10279000FEF72BFA0020FEF728FAA620FEF725FA0E
:1027A0000020FEF722FAB720FEF71FFA0020FEF7FE
:1027B0001CFAC220FEF719FA0020FEF716FAC7200D
:1027C000FEF713FA0020FEF710FAD120FEF70DFAFB
:1027D0000020FEF70AFAD620FEF707FA0020FEF7DF
:1027E00004FADD20FEF701FA0020FEF7FEF9F320DF
:1027F000FEF7FBF90020FEF7F8F9E320FEF7ECF90D
:102800000520FEF7F2F90020FEF7EFF90A20FEF7A7
:10281000ECF90020FEF7E9F91C20FEF7E6F90020AC
:10282000FEF7E3F93320FEF7E0F90020FEF7DDF9CB
:102830004420FEF7DAF90020FEF7D7F95020FEF722
:10284000D4F90020FEF7D1F96220FEF7CEF900207E
:10285000FEF7CBF97820FEF7C8F90020FEF7C5F99E
:102860008820FEF7C2F90020FEF7BFF99720FEF797
:10287000BCF90020FEF7B9F9A620FEF7B6F9002052
:10288000FEF7B3F9B720FEF7B0F90020FEF7ADF977
:10289000C220FEF7AAF90020FEF7A7F9C720FEF72D
:1028A000A4F90020FEF7A1F9D120FEF79EF900203F
:1028B000FEF79BF9D520FEF798F90020FEF795F971
:1028C000DD20FEF792F90020FEF78FF9F320FEF7E6
:1028D0008CF90020FEF789F9E420FEF77DF901204C
:1028E000FEF783F90020FEF780F90120FEF77DF95D
:1028F0000020FEF77AF90220FEF777F90020FEF7B4
:1029000074F92A20FEF771F90020FEF76EF93C20D9
:10291000FEF76BF90020FEF768F94B20FEF765F92A
:102920000020FEF762F95D20FEF75FF90020FEF758
:102930005CF97420FEF759F90020FEF756F984205F
:10294000FEF753F90020FEF750F99320FEF74DF9FA
:102950000020FEF74AF9A220FEF747F90020FEF713
:1029600044F9B320FEF741F90020FEF73EF9BE20FE
:10297000FEF73BF90020FEF738F9C420FEF735F9E1
:102980000020FEF732F9CD20FEF72FF90020FEF7E8
:102990002CF9D320FEF729F90020FEF726F9DD20D7
:1029A000FEF723F90020FEF720F9F320FEF71DF9CA
:1029B0000020FEF71AF9E520FEF70EF90020FEF7D9
:1029C00014F90020FEF711F90020FEF70EF900209F
:1029D000FEF70BF90220FEF708F90020FEF705F9D3
:1029E0002920FEF702F90020FEF7FFF83C20FEF751
:1029F000FCF80020FEF7F9F84B20FEF7F6F800206F
:102A0000FEF7F3F85D20FEF7F0F80020FEF7EDF892
:102A10007420FEF7EAF80020FEF7E7F88420FEF7BE
:102A2000E4F80020FEF7E1F89320FEF7DEF800203E
:102A3000FEF7DBF8A220FEF7D8F80020FEF7D5F865
:102A4000B320FEF7D2F80020FEF7CFF8BE20FEF745
:102A5000CCF80020FEF7C9F8C420FEF7C6F8002025
:102A6000FEF7C3F8CD20FEF7C0F80020FEF7BDF852
:102A7000D320FEF7BAF80020FEF7B7F8DC20FEF707
:102A8000B4F80020FEF7B1F8F320FEF7AEF800200E
:102A9000FEF7ABF8E620FEF79FF81120FEF7A5F849
:102AA0000020FEF7A2F83420FEF79FF80020FEF782
:102AB0009CF85620FEF799F80020FEF796F876204D
:102AC000FEF793F80020FEF790F87720FEF78DF8D8
:102AD0000020FEF78AF86620FEF787F80020FEF750
:102AE00084F88820FEF781F80020FEF77EF8992010
:102AF000FEF77BF80020FEF778F8BB20FEF775F8AC
:102B00000020FEF772F89920FEF76FF80020FEF71C
:102B10006CF86620FEF769F80020FEF766F855208D
:102B2000FEF763F80020FEF760F85520FEF75DF829
:102B30000020FEF75AF84520FEF757F80020FEF770
:102B400054F84320FEF751F80020FEF74EF84420D9
:102B5000FEF74BF80020FEF748F8E720FEF73CF8B8
:102B60003220FEF742F80020FEF73FF85520FEF72E
:102B70003CF80020FEF739F87620FEF736F8002002
:102B8000FEF733F86620FEF730F80020FEF72DF848
:102B90006720FEF72AF80020FEF727F86720FEF7E7
:102BA00024F80020FEF721F88720FEF71EF8002009
:102BB000FEF71BF89920FEF718F80020FEF715F82D
:102BC000BB20FEF712F80020FEF70FF89920FEF761
:102BD0000CF80020FEF709F87720FEF706F8002031
:102BE000FEF703F84420FEF700F80020FDF7FDFF94
:102BF0005620FDF7FAFF0020FDF7F7FF2320FDF731
:102C0000F4FF0020FDF7F1FF3320FDF7EEFF002079
:102C1000FDF7EBFF4520FDF7E8FF0020FDF7E5FF9E
:102C2000E820FDF7D9FF0020FDF7DFFF0020FDF7CA
:102C3000DCFF9920FDF7D9FF0020FDF7D6FF8720A4
:102C4000FDF7D3FF0020FDF7D0FF8820FDF7CDFF73
:102C50000020FDF7CAFF7720FDF7C7FF0020FDF732
:102C6000C4FF6620FDF7C1FF0020FDF7BEFF8820EE
:102C7000FDF7BBFF0020FDF7B8FFAA20FDF7B5FF69
:102C80000020FDF7B2FFBB20FDF7AFFF0020FDF7EE
:102C9000ACFF9920FDF7A9FF0020FDF7A6FF6620F5
:102CA000FDF7A3FF0020FDF7A0FF5520FDF79DFFD6
:102CB0000020FDF79AFF5520FDF797FF0020FDF754
:102CC00094FF4420FDF791FF0020FDF78EFF442084
:102CD000FDF78BFF0020FDF788FF5520FDF785FFEE
:102CE0000020FDF782FFE920FDF776FFAA20FDF71F
:102CF0007CFF0020FDF779FF0020FDF776FF002024
:102D0000FDF773FF0020FDF767FFAA20FDF76DFFB9
:102D1000CF20FDF761FF0020FDF767FF0020FDF7E2
:102D200064FF0020FDF761FF0020FDF75EFF00203B
:102D3000FDF75BFF0020FDF758FF0020FDF755FF72
:102D40000020FDF752FF0020FDF74FFF0020FDF7A8
:102D50004CFF0020FDF749FF0020FDF746FF002053
:102D6000FDF743FF0020FDF740FF0020FDF73DFF8A
:102D70000020FDF73AFF0020FDF737FFF020FDF7B8
:102D80002BFF0020FDF731FF5020FDF72EFF002024
:102D9000FDF72BFF0020FDF728FF0020FDF725FFA2
:102DA000F320FDF719FF0020FDF71FFFF920FDF7C5
:102DB00013FF0620FDF719FF1020FDF716FF29204D
:102DC000FDF713FF0020FDF710FF3A20FDF704FF89
:102DD0005520FDF70AFF1120FDF7FEFE642002F0EA
:102DE000E1FD2920FDF7F8FE3520FDF7F5FE002076
:102DF000FDF7FBFE5120FDF7EFFEFF20FDF7F5FE8E
:102E00005320FDF7E9FE2C20FDF7EFFE5520FDF7DE
:102E1000E3FE8220FDF7E9FE2C20FDF7DDFE02F047
:102E200028B8FE48808845F2105188427ED155214D
:102E30004FF47040FDF7EBFEAA214FF20100FDF7C1
:102E4000E6FE52214FF20200FDF7E1FE08214FF2AB
:102E50000300FDF7DCFE01214FF20400FDF7D7FE71
:102E60000D214FF43040FDF7D2FE0D214BF2010051
:102E7000FDF7CDFE0D214BF20200FDF7C8FE342117
:102E80004FF43640FDF7C3FE34214BF20160FDF7ED
:102E9000BEFE34214BF20260FDF7B9FE0D214FF466
:102EA0003140FDF7B4FE0D214BF20110FDF7AFFEEE
:102EB0000D214BF20210FDF7AAFE34214FF43740EA
:102EC000FDF7A5FE34214BF20170FDF7A0FE342181
:102ED0004BF20270FDF79BFE00214FF43240FDF7EC
:102EE00096FE00214BF20120FDF791FE00214BF2EE
:102EF0000220FDF78CFE24214FF43840FDF787FEB9
:102F000024214BF60100FDF782FE24214BF602003E
:102F1000FDF77DFE01214FF43F40FDF778FE0F21C4
:102F20004FF43340FDF773FE0F2100E0FEE34BF258
:102F30000130FDF76CFE0F214BF20230FDF767FE0A
:102F400034214FF43940FDF762FE34214BF6011075
:102F5000FDF75DFE34214BF60210FDF758FE082107
:102F60004FF43540FDF753FE08214BF20150FDF7B9
:102F70004EFE08214BF20250FDF749FE03214FF4AB
:102F80004240FDF744FE24214FF43A40FDF73FFE56
:102F900024214BF60120FDF73AFE24214BF60220B6
:102FA000FDF735FE00214FF43C40FDF730FE78215F
:102FB0004BF60140FDF72BFE00214BF60240FDF7DA
:102FC00026FE00214FF43D40FDF721FE78214BF60F
:102FD0000150FDF71CFE00214BF60250FDF717FED5
:102FE00000214FF43E40FDF712FE64214BF60160D4
:102FF000FDF70DFE00214FF45140FDF708FE33218F
:103000004DF20110FDF703FE00214DF20210FDF715
:10301000FEFD34214DF20310FDF7F9FD00214DF2C4
:103020000410FDF7F4FD3A214DF20510FDF7EFFD18
:1030300000214DF20610FDF7EAFD4A214DF207107E
:10304000FDF7E5FD00214DF20810FDF7E0FD5C21E4
:103050004DF20910FDF7DBFD00214DF20A10FDF7DE
:10306000D6FD81214DF20B10FDF7D1FD00214DF26F
:103070000C10FDF7CCFDA6214DF20D10FDF7C7FD9C
:1030800000214DF20E10FDF7C2FDE5214DF20F10AB
:10309000FDF7BDFD01214DF21010FDF7B8FD132124
:1030A0004DF21110FDF7B3FD01214DF21210FDF7A5
:1030B000AEFD54214DF21310FDF7A9FD01214DF293
:1030C0001410FDF7A4FD82214DF21510FDF79FFDB0
:1030D00001214DF21610FDF79AFDCA214DF217108D
:1030E000FDF795FD02214DF21810FDF790FD00212E
:1030F0004DF21910FDF78BFD02214DF21A10FDF76C
:1031000086FD01214DF21B10FDF781FD02214DF2DC
:103110001C10FDF77CFD34214DF21D10FDF777FDED
:1031200002214DF21E10FDF772FD67214DF21F10B6
:10313000FDF76DFD02214DF22010FDF768FD8421A1
:103140004DF22110FDF763FD02214DF22210FDF733
:103150005EFDA4214DF22310FDF759FD02214DF231
:103160002410FDF754FDB7214DF22510FDF74FFD5A
:1031700002214DF22610FDF74AFDCF214DF2271016
:10318000FDF745FD02214DF22810FDF740FDDE213F
:103190004DF22910FDF73BFD02214DF22A10FDF7FB
:1031A00036FDF2214DF22B10FDF731FD02214DF2DB
:1031B0002C10FDF72CFDFE214DF22D10FDF727FD03
:1031C00003214DF22E10FDF722FD10214DF22F109C
:1031D000FDF71DFD03214DF23010FDF718FD3321E1
:1031E0004DF23110FDF713FD03214DF23210FDF7C2
:1031F0000EFD6D214DF23310FDF709FD00214FF456
:103200005240FDF704FD33214DF20120FDF7FFFC94
:1032100000214DF20220FDF7FAFC01E068010020D8
:1032200034214DF20320FDF7F2FC00214DF2042081
:10323000FDF7EDFC3A214DF20520FDF7E8FC0021F9
:103240004DF20620FDF7E3FC4A214DF20720FDF781
:10325000DEFC00214DF20820FDF7D9FC5C214DF287
:103260000920FDF7D4FC00214DF20A20FDF7CFFC28
:1032700081214DF20B20FDF7CAFC00214DF20C20FC
:10328000FDF7C5FCA6214DF20D20FDF7C0FC002185
:103290004DF20E20FDF7BBFCE5214DF20F20FDF7AE
:1032A000B6FC01214DF21020FDF7B1FC13214DF2C7
:1032B0001120FDF7ACFC01214DF21220FDF7A7FC17
:1032C00054214DF21320FDF7A2FC01214DF21420F0
:1032D000FDF79DFC82214DF21520FDF798FC0121A0
:1032E0004DF21620FDF793FCCA214DF21720FDF791
:1032F0008EFC02214DF21820FDF789FC00214DF2D1
:103300001920FDF784FC02214DF21A20FDF77FFC05
:1033100001214DF21B20FDF77AFC02214DF21C2009
:10332000FDF775FC34214DF21D20FDF770FC0221E4
:103330004DF21E20FDF76BFC67214DF21F20FDF7BB
:1033400066FC02214DF22020FDF761FC84214DF244
:103350002120FDF75CFC02214DF22220FDF757FCF5
:10336000A4214DF22320FDF752FC02214DF224202E
:10337000FDF74DFCB7214DF22520FDF748FC022159
:103380004DF22620FDF743FCCF214DF22720FDF71B
:103390003EFC02214DF22820FDF739FCDE214DF2E2
:1033A0002920FDF734FC02214DF22A20FDF72FFCE5
:1033B000F2214DF22B20FDF72AFC02214DF22C20A8
:1033C000FDF725FCFE214DF22D20FDF720FC032109
:1033D0004DF22E20FDF71BFC10214DF22F20FDF7A2
:1033E00016FC03214DF23020FDF711FC33214DF284
:1033F0003120FDF70CFC03214DF23220FDF707FCD4
:103400006D214DF23320FDF702FC00214FF45340B3
:10341000FDF7FDFB33214DF20130FDF7F8FB0021F4
:103420004DF20230FDF7F3FB34214DF20330FDF78E
:10343000EEFB00214DF20430FDF7E9FB3A214DF29D
:103440000530FDF7E4FB00214DF20630FDF7DFFB10
:103450004A214DF20730FDF7DAFB00214DF208302A
:10346000FDF7D5FB5C214DF20930FDF7D0FB0021C3
:103470004DF20A30FDF7CBFB81214DF20B30FDF709
:10348000C6FB00214DF20C30FDF7C1FBA6214DF229
:103490000D30FDF7BCFB00214DF20E30FDF7B7FB00
:1034A000E5214DF20F30FDF7B2FB01214DF2103056
:1034B000FDF7ADFB13214DF21130FDF7A8FB012103
:1034C0004DF21230FDF7A3FB54214DF21330FDF7FE
:1034D0009EFB01214DF21430FDF799FB82214DF244
:1034E0001530FDF794FB01214DF21630FDF78FFBEF
:1034F000CA214DF21730FDF78AFB02214DF2183038
:10350000FDF785FB00214DF21930FDF780FB02210C
:103510004DF21A30FDF77BFB01214DF21B30FDF718
:1035200076FB02214DF21C30FDF771FB34214DF288
:103530001D30FDF76CFB02214DF21E30FDF767FBDD
:1035400067214DF21F30FDF762FB02214DF2203062
:10355000FDF75DFB84214DF22130FDF758FB022180
:103560004DF22230FDF753FBA4214DF22330FDF73D
:103570004EFB02214DF22430FDF749FBB7214DF2FD
:103580002530FDF744FB02214DF22630FDF73FFBCD
:10359000CF214DF22730FDF73AFB02214DF22830C2
:1035A000FDF735FBDE214DF22930FDF730FB02211E
:1035B0004DF22A30FDF72BFBF2214DF22B30FDF7B7
:1035C00026FB02214DF22C30FDF721FBFE214DF2AE
:1035D0002D30FDF71CFB03214DF22E30FDF717FBBC
:1035E00010214DF22F30FDF712FB03214DF2303048
:1035F000FDF70DFB33214DF23130FDF708FB0321C0
:103600004DF23230FDF703FB6D214DF23330FDF703
:10361000FEFA00214FF45440FDF7F9FA33214DF240
:103620000140FDF7F4FA00214DF20240FDF7EFFAF8
:1036300034214DF20340FDF7EAFA00214DF2044037
:10364000FDF7E5FA3A214DF20540FDF7E0FA0021D9
:103650004DF20640FDF7DBFA4A214DF20740FDF737
:10366000D6FA00214DF20840FDF7D1FA5C214DF267
:103670000940FDF7CCFA00214DF20A40FDF7C7FAE8
:1036800081214DF20B40FDF7C2FA00214DF20C40B2
:10369000FDF7BDFAA6214DF20D40FDF7B8FA002165
:1036A0004DF20E40FDF7B3FAE5214DF20F40FDF764
:1036B000AEFA01214DF21040FDF7A9FA13214DF2A7
:1036C0001140FDF7A4FA01214DF21240FDF79FFAD7
:1036D00054214DF21340FDF79AFA01214DF21440A6
:1036E000FDF795FA82214DF21540FDF790FA012180
:1036F0004DF21640FDF78BFACA214DF21740FDF747
:1037000086FA02214DF21840FDF781FA00214DF2B0
:103710001940FDF77CFA02214DF21A40FDF777FAC5
:1037200001214DF21B40FDF772FA00E004E3022193
:103730004DF21C40FDF76BFA34214DF21D40FDF7B0
:1037400066FA02214DF21E40FDF761FA67214DF243
:103750001F40FDF75CFA02214DF22040FDF757FAB9
:1037600084214DF22140FDF752FA02214DF2224010
:10377000FDF74DFAA4214DF22340FDF748FA02214E
:103780004DF22440FDF743FAB7214DF22540FDF7F5
:103790003EFA02214DF22640FDF739FACF214DF2D3
:1037A0002740FDF734FA02214DF22840FDF72FFAA9
:1037B000DE214DF22940FDF72AFA02214DF22A407E
:1037C000FDF725FAF2214DF22B40FDF720FA0221F8
:1037D0004DF22C40FDF71BFAFE214DF22D40FDF776
:1037E00016FA03214DF22E40FDF711FA10214DF289
:1037F0002F40FDF70CFA03214DF23040FDF707FA98
:1038000033214DF23140FDF702FA03214DF23240EF
:10381000FDF7FDF96D214DF23340FDF7F8F9002178
:103820004FF45540FDF7F3F933214DF20150FDF708
:10383000EEF900214DF20250FDF7E9F934214DF285
:103840000350FDF7E4F900214DF20450FDF7DFF9D4
:103850003A214DF20550FDF7DAF900214DF20650FC
:10386000FDF7D5F94A214DF20750FDF7D0F90021B7
:103870004DF20850FDF7CBF95C214DF20950FDF7F0
:10388000C6F900214DF20A50FDF7C1F981214DF230
:103890000B50FDF7BCF900214DF20C50FDF7B7F9C4
:1038A000A6214DF20D50FDF7B2F900214DF20E5058
:1038B000FDF7ADF9E5214DF20F50FDF7A8F9012113
:1038C0004DF21050FDF7A3F913214DF21150FDF701
:1038D0009EF901214DF21250FDF799F954214DF254
:1038E0001350FDF794F901214DF21450FDF78FF9B3
:1038F00082214DF21550FDF78AF901214DF2165043
:10390000FDF785F9CA214DF21750FDF780F9022124
:103910004DF21850FDF77BF900214DF21950FDF7DB
:1039200076F902214DF21A50FDF771F901214DF29D
:103930001B50FDF76CF902214DF21C50FDF767F9A1
:1039400034214DF21D50FDF762F902214DF21E5057
:10395000FDF75DF967214DF21F50FDF758F902217F
:103960004DF22050FDF753F984214DF22150FDF71F
:103970004EF902214DF22250FDF749F9A4214DF2F2
:103980002350FDF744F902214DF22450FDF73FF991
:10399000B7214DF22550FDF73AF902214DF226509C
:1039A000FDF735F9CF214DF22750FDF730F902210F
:1039B0004DF22850FDF72BF9DE214DF22950FDF78D
:1039C00026F902214DF22A50FDF721F9F2214DF29C
:1039D0002B50FDF71CF902214DF22C50FDF717F981
:1039E000FE214DF22D50FDF712F903214DF22E501C
:1039F000FDF70DF910214DF22F50FDF708F90321C5
:103A00004DF23050FDF703F933214DF23150FDF7FF
:103A1000FEF803214DF23250FDF7F9F86D214DF219
:103A20003350FDF7F4F800214FF45640FDF7EFF85E
:103A300033214DF20160FDF7EAF800214DF20260FA
:103A4000FDF7E5F834214DF20360FDF7E0F80021C1
:103A50004DF20460FDF7DBF83A214DF20560FDF709
:103A6000D6F800214DF20660FDF7D1F84A214DF25B
:103A70000760FDF7CCF800214DF20860FDF7C7F8AC
:103A80005C214DF20960FDF7C2F800214DF20A6099
:103A9000FDF7BDF881214DF20B60FDF7B8F800216C
:103AA0004DF20C60FDF7B3F8A6214DF20D60FDF765
:103AB000AEF800214DF20E60FDF7A9F8E5214DF2B8
:103AC0000F60FDF7A4F801214DF21060FDF79FF89B
:103AD00013214DF21160FDF79AF801214DF21260A9
:103AE000FDF795F854214DF21360FDF790F8012190
:103AF0004DF21460FDF78BF882214DF21560FDF751
:103B000086F801214DF21660FDF781F8CA214DF2C9
:103B10001760FDF77CF802214DF21860FDF777F889
:103B200000214DF21960FDF772F802214DF21A6082
:103B3000FDF76DF801214DF21B60FDF768F80221D9
:103B40004DF21C60FDF763F834214DF21D60FDF766
:103B50005EF802214DF21E60FDF759F867214DF223
:103B60001F60FDF754F802214DF22060FDF74FF879
:103B700084214DF22160FDF74AF802214DF22260C6
:103B8000FDF745F8A4214DF22360FDF740F802212E
:103B90004DF22460FDF73BF8B7214DF22560FDF7AB
:103BA00036F802214DF22660FDF731F8CF214DF2B3
:103BB0002760FDF72CF802214DF22860FDF727F869
:103BC000DE214DF22960FDF722F802214DF22A6034
:103BD000FDF71DF8F2214DF22B60FDF718F80221D8
:103BE0004DF22C60FDF713F8FE214DF22D60FDF72C
:103BF0000EF803214DF22E60FDF709F810214DF269
:103C00002F60FDF704F803214DF23060FCF7FFFF51
:103C100033214DF23160FCF7FAFF03214DF232609F
:103C2000FCF7F5FF6D214DF23360FCF7F0FF5521F5
:103C30004FF47040FCF7EBFFAA214FF20100FCF7B4
:103C4000E6FF52214FF20200FCF7E1FF08214FF29C
:103C50000300FCF7DCFF00214FF20400FCF7D7FF64
:103C6000CC214FF43140FCF7D2FF00214BF2011080
:103C7000FCF7CDFF05214FF43640FCF7C8FF70215B
:103C80004FF43740FCF7C3FF70214BF20170FCF793
:103C9000BEFF01214FF43840FCF7B9FF03214BF67A
:103CA0000100FCF7B4FF03214BF60200FCF7AFFF65
:103CB00003214BF60300FCF7AAFF02214FF43C401E
:103CC000FCF7A5FF00214BF60140FCF7A0FF002107
:103CD0004BF60240FCF79BFFD0214FF44940FCF724
:103CE00096FF02214CF60110FCF791FF50214CF693
:103CF0000210FCF78CFF50214CF60310FCF787FFF5
:103D000050214CF60410FCF782FF00214FF4545070
:103D1000FCF77DFF55214FF46850FCF778FF4FF416
:103D20008850FCF759FF782001F0F4FD4FF424503F
:103D3000FCF752FF01F09DB8FE48808849F225311A
:103D400088427DD147F6F001E520FCF760FF4FF493
:103D500080710120FCF75BFF4FF4E0610220FCF76B
:103D600056FF41F230010320FCF751FF00210420EF
:103D7000FCF74DFF40F202210820FCF748FF00212C
:103D80000920FCF744FF00210A20FCF740FF002136
:103D90000C20FCF73CFF00210D20FCF738FF002130
:103DA0000F20FCF734FF00211020FCF730FF072123
:103DB0001120FCF72CFF00211220FCF728FF002126
:103DC0001320FCF724FF00210720FCF720FF41F21D
:103DD00090611020FCF71BFF40F227211120FCF717
:103DE00016FF9D211220FCF712FF4FF4C85113203B
:103DF000FCF70DFF25212920FCF709FF0D212B20C1
:103E0000FCF705FF07213020FCF701FF40F20331EA
:103E10003120FCF7FCFE03213220FCF7F8FE40F2D3
:103E200006213520FCF7F3FE08213620FCF7EFFED3
:103E300040F206413720FCF7EAFE4FF4417100E002
:103E400058E03820FCF7E3FE07213920FCF7DFFEBD
:103E500040F202613C20FCF7DAFE08213D20FCF72D
:103E6000D6FE00215020FCF7D2FEEF215120FCF7B6
:103E7000CEFE00215220FCF7CAFE40F23F11532033
:103E8000FCF7C5FE4FF427416020FCF7C0FE01217E
:103E90006120FCF7BCFE00216A20FCF7B8FE00217F
:103EA0008020FCF7B4FE00218120FCF7B0FE002149
:103EB0008220FCF7ACFE00218320FCF7A8FE002145
:103EC0008420FCF7A4FE00218520FCF7A0FE102131
:103ED0009020FCF79CFE4FF4C0619220FCF797FE07
:103EE00040F233110720FCF792FE22210020FCF75C
:103EF0008EFE1FE78F48808849F2283188427DD1A5
:103F000041F28F01EC20FCF782FE41F23421EF20D8
:103F1000FCF77DFE4FF480710120FCF778FE4FF432
:103F2000E0610220FCF773FE41F230010320FCF750
:103F30006EFE00210420FCF76AFE40F202210820F8
:103F4000FCF765FE00210920FCF761FE00210A2034
:103F5000FCF75DFE01210C20FCF759FE00210D202D
:103F6000FCF755FE00210F20FCF751FE0021102028
:103F7000FCF74DFE07211120FCF749FE002112201D
:103F8000FCF745FE00211320FCF741FE012107202C
:103F9000FCF73DFE322001F005FD41F2904110207A
:103FA000FCF735FE40F227211120FCF730FE3220CD
:103FB00001F0F8FC8A211220FCF729FE322001F0E2
:103FC000F1FC4FF4D0511320FCF721FE06212920EB
:103FD000FCF71DFE0D212B20FCF719FE322001F00D
:103FE000E1FC00212020FCF712FE00212120FCF73B
:103FF0000EFE322001F0D6FC002100E075E03020FA
:10400000FCF705FE40F204613120FCF700FE40F2AF
:1040100005313220FCF7FBFD00213520FCF7F7FDD0
:1040200040F609413620FCF7F2FD4FF401713720CC
:10403000FCF7EDFD40F201313820FCF7E8FD40F2DD
:1040400007713920FCF7E3FD00213C20FCF7DFFD80
:1040500040F60A213D20FCF7DAFD322001F0A2FCF7
:1040600000215020FCF7D3FDEF215120FCF7CFFDBC
:1040700000215220FCF7CBFD40F23F115320FCF70A
:10408000C6FD4FF427416020FCF7C1FD01216120EE
:10409000FCF7BDFD00216A20FCF7B9FD002180205E
:1040A000FCF7B5FD00218120FCF7B1FD0021822045
:1040B000FCF7ADFD00218320FCF7A9FD0021842041
:1040C000FCF7A5FD00218520FCF7A1FD1021902023
:1040D000FCF79DFD4FF4C0619220FCF798FD40F283
:1040E00033110720FCF793FD24E61248808849F23B
:1040F000203188427ED100210846FCF788FD4FF42C
:1041000080710120FCF783FD4FF4E0610220FCF791
:104110007EFD41F230010320FCF779FD00210420EF
:10412000FCF775FD40F202210820FCF770FD00212C
:10413000092001E068010020FCF769FD00210A2048
:10414000FCF765FD01210C20FCF761FD00210D202D
:10415000FCF75DFD00210F20FCF759FD322001F036
:1041600021FC40F201110720FCF751FD322001F043
:1041700019FC4FF486511020FCF749FD072111204E
:10418000FCF745FD4FF488711220FCF740FD4FF419
:1041900030611320FCF73BFD00212920FCF737FD9F
:1041A00044F210012B20FCF732FD00215020FCF7D7
:1041B0002EFDEF215120FCF72AFD00215220FCF7B3
:1041C00026FD40F23F115320FCF721FD4FF41C5116
:1041D0006020FCF71CFD01216120FCF718FD002187
:1041E0006A20FCF714FD00218020FCF710FD00215F
:1041F000812000E030E0FCF70AFD00218220FCF77E
:1042000006FD00218320FCF702FD00218420FCF73D
:10421000FEFC00218520FCF7FAFC10219020FCF721
:10422000F6FC00219220FCF7F2FC01219320FCF720
:10423000EEFC4FF488719520FCF7E9FC00219720F3
:10424000FCF7E5FC00219820FCF7E1FC40F273113B
:104250000720FCF7DCFC6DE5FE48808849F231312F
:1042600088427DD141F21401E720FCF7D0FC4FF4E5
:1042700080710120FCF7CBFC4FF400710220FCF7A9
:10428000C6FC41F238010320FCF7C1FC40F20221D8
:104290000820FCF7BCFC00210920FCF7B8FC002139
:1042A0000A20FCF7B4FC00210C20FCF7B0FC002134
:1042B0000D20FCF7ACFC00210F20FCF7A8FC00212E
:1042C0001020FCF7A4FC07211120FCF7A0FC002122
:1042D0001220FCF79CFC00211320FCF798FCC8205E
:1042E00001F060FB41F290611020FCF790FC40F27D
:1042F00027211120FCF78BFC322001F053FB0C210D
:104300001220FCF784FC322001F04CFB4FF40061DA
:104310001320FCF77CFC11212920FCF778FC0B21F1
:104320002B20FCF774FC322001F03CFB0021202004
:10433000FCF76DFC40F23F112120FCF768FC0021E6
:104340003020FCF764FC4FF483713120FCF75FFCF4
:1043500000213220FCF75BFC4FF40171352000E0B6
:1043600064E0FCF754FC41F20A613620FCF74FFC94
:1043700040F207713720FCF74AFC4FF48371382074
:10438000FCF745FC40F207713920FCF740FC40F295
:1043900002413C20FCF73BFC40F60F413D20FCF77E
:1043A00036FC00215020FCF732FCEF215120FCF7B5
:1043B0002EFC00215220FCF72AFC40F23F11532032
:1043C000FCF725FC4FF41C516020FCF720FC012178
:1043D0006120FCF71CFC00216A20FCF718FC00217E
:1043E0008020FCF714FC00218120FCF710FC002148
:1043F0008220FCF70CFC00218320FCF708FC002144
:104400008420FCF704FC00218520FCF700FC10212F
:104410009020FCF7FCFB4FF4C0619220FCF7F7FB07
:1044200040F233110720FCF7F2FB83E489488088CF
:1044300045F2084188427DD14FF480710120FCF79C
:10444000E6FB4FF4E0610220FCF7E1FB41F23001B2
:104450000320FCF7DCFB00210420FCF7D8FB40F232
:1044600007210820FCF7D3FB00210920FCF7CFFB34
:1044700000210A20FCF7CBFB00210C20FCF7C7FB36
:1044800000210D20FCF7C3FB00210F20FCF7BFFB30
:10449000142001F087FA41F2B0611020FCF7B7FB5D
:1044A00001211120FCF7B3FB01211720FCF7AFFB22
:1044B0004FF49C711220FCF7AAFB4FF4006113200B
:1044C000FCF7A5FB09212920FCF7A1FB09212A20E3
:1044D000FCF79DFB0021A420FCF799FB0021502054
:1044E000FCF795FBEF215120FCF791FB00215220B6
:1044F000FCF78DFB40F23F115320FCF788FB4FF493
:104500001C516020FCF783FB01216120FCF77FFB3D
:1045100000216A20FCF77BFB00218020FCF777FB61
:1045200000218120FCF773FB00218220FCF76FFB48
:10453000002100E024E08320FCF769FB00218420B7
:10454000FCF765FB00218520FCF761FB132190201F
:10455000FCF75DFB00219220FCF759FB032193201F
:10456000FCF755FB4FF488719520FCF750FB40F2A7
:1045700073110720FCF74BFB322001F013FAB8E46B
:104580003448808841F2055188427DD100210720BE
:10459000FCF73DFB322001F005FA4FF48E7112203A
:1045A000FCF735FB0121A420FCF731FB0F2108208B
:1045B000FCF72DFB08210A20FCF729FB08210D2020
:1045C000FCF725FB40F207713020FCF720FB0721A8
:1045D0003120FCF71CFB40F203613220FCF717FB93
:1045E0004FF4E0613320FCF712FB40F2022134204B
:1045F000FCF70DFB02213520FCF709FB41F60F719A
:104600003620FCF704FB40F207713720FCF7FFFA75
:1046100000213820FCF7FBFA00213920FCF7F7FADB
:1046200040F207713A20FCF7F2FA00213B20FCF738
:10463000EEFA07213C20FCF7EAFA00213D20FCF7C6
:10464000E6FA322001F0AEF901210720FCF7DFFA8B
:10465000012101E0680100201720FCF7D8FA322080
:1046600001F0A0F94FF4BD511020FCF7D0FA40F250
:1046700017211120FCF7CBFA4FF48F711220FCF7B1
:10468000C6FA4FF4706100E098E01320FCF7BFFA1F
:1046900000212A20FCF7BBFA0A212920FCF7B7FAEF
:1046A0004FF49F711220FCF7B2FA00215020FCF762
:1046B000AEFAEF215120FCF7AAFA00215220FCF7B4
:1046C000A6FA40F23F115320FCF7A1FA4FF41C5117
:1046D0006020FCF79CFA01216120FCF798FA002188
:1046E0006A20FCF794FA00218020FCF790FA002160
:1046F0008120FCF78CFA00218220FCF788FA002147
:104700008320FCF784FA00218420FCF780FA002142
:104710008520FCF77CFA13219020FCF778FA4FF4FF
:1047200040719220FCF773FA05219320FCF76FFA91
:1047300000219520FCF76BFA00219720FCF767FA1F
:1047400000219820FCF763FA4FF480710120FCF7F8
:104750005EFA4FF4E0610220FCF759FA41F23801A9
:104760000320FCF754FA00210420FCF750FA002142
:104770000C20FCF74CFA00210F20FCF748FA00212E
:104780002020FCF744FA00212120FCF740FA2121E7
:104790000720FCF73CFA142001F004F961210720FE
:1047A000FCF735FA142001F0FDF840F273110720F0
:1047B000FCF72DFA142001F0F5F85AE3FE48808842
:1047C0004BF2055188427CD100210846FCF71FFAC4
:1047D00000210846FCF71BFA00210846FCF717FAEF
:1047E00000210846FCF713FA0121A420FCF70FFA78
:1047F000142001F0D7F84FF41C516020FCF707FAA1
:1048000040F202210820FCF702FA4FF40571302033
:10481000FCF7FDF943F215713120FCF7F8F940F28D
:1048200004613220FCF7F3F940F616613320FCF7FF
:10483000EEF942F211213420FCF7E9F94FF4A851C6
:104840003520FCF7E4F948F207513620FCF7DFF990
:1048500041F207413720FCF7DAF941F203413820F1
:10486000FCF7D5F920213920FCF7D1F91A21902045
:10487000FCF7CDF900211020FCF7C9F90721112020
:10488000FCF7C5F900211220FCF7C1F90021132023
:10489000FCF7BDF9142001F085F84FF4E661102013
:1048A000FCF7B5F940F237111120FCF7B0F91420EC
:1048B00001F078F84FF4DC711220FCF7A8F914200D
:1048C00000E085E001F06EF84FF470611320FCF712
:1048D0009EF980212A20FCF79AF948212920FCF72B
:1048E00096F9142001F05EF84FF480710120FCF776
:1048F0008EF94FF4E0610220FCF789F941F23801AA
:104900000320FCF784F940F202210820FCF77FF92C
:1049100000210A20FCF77BF900210C20FCF777F935
:1049200000210D20FCF773F930210E20FCF76FF900
:1049300000215020FCF76BF9EF215120FCF767F9BB
:1049400000215220FCF763F940F23F115320FCF79D
:104950005EF94FF41C516020FCF759F901216120E8
:10496000FCF755F900216A20FCF751F9112190203C
:10497000FCF74DF94FF4C0619220FCF748F940F282
:1049800002419320FCF743F902219420FCF73FF900
:10499000142001F007F801210720FCF738F9142052
:1049A00001F000F861210720FCF731F940F27311A2
:1049B0000720FCF72CF900212020FCF728F9002122
:1049C0002120FCF724F922210020FCF720F950E2F5
:1049D000794880884CF2055188427CD100210846F4
:1049E000FCF715F900210846FCF711F9142000F036
:1049F000D9FF00210846FCF70AF900210846FCF718
:104A000006F900210846FCF702F900210846FCF7E8
:104A1000FEF80121A420FCF7FAF8142000F0C2FFF0
:104A20004FF41C516020FCF7F2F840F60601082014
:104A3000FCF7EDF840F203713020FCF7E8F80121B3
:104A40003120FCF7E4F804213220FCF7E0F84FF4C1
:104A500081713320FCF7DBF84FF440713420FCF710
:104A6000D6F840F203113520FCF7D1F81F2136208B
:104A7000FCF7CDF840F203713720FCF7C8F80121AC
:104A80003820FCF7C4F804213920FCF7C0F81521C0
:104A90009020FCF7BCF84FF482611020FCF7B7F8C7
:104AA00040F247211120FCF7B2F84FF4DE711220DA
:104AB000FCF7ADF84FF460611320FCF7A8F87820FC
:104AC00000F070FF4FF480710120FCF7A0F84FF464
:104AD0000071022000E052E0FCF799F841F2300149
:104AE0000320FCF794F808210A20FCF790F8002135
:104AF0000C20FCF78CF820210E20FCF788F8002110
:104B00000F20FCF784F800212020FCF780F800211A
:104B10002120FCF77CF83D212A20FCF778F81420AE
:104B200000F040FF2D212920FCF771F800215020D2
:104B3000FCF76DF84DF2EF015120FCF768F8002109
:104B40005220FCF764F840F23F115320FCF75FF865
:104B500000216120FCF75BF800216A20FCF757F880
:104B60004FF440719220FCF752F805219320FCF796
:104B70004EF84FF480710720FCF749F879E10E48B0
:104B8000808844F2315188427ED101210020FCF717
:104B90003EF80A2000F006FF41F228611020FCF7E1
:104BA00036F80E211220FCF732F840F63921132096
:104BB000FCF72DF80A2001E06801002000F0F2FE69
:104BC00040211120FCF723F850211520FCF71FF895
:104BD0000A2000F0E7FE1E211220FCF718F80A2038
:104BE00000F0E0FE4FF4B1511020FCF710F842F64F
:104BF00039211320FCF70BF80A2000F0D3FE4FF404
:104C000080710120FCF703F84FF440710220FBF79C
:104C1000FEFF41F238010320FBF7F9FF40F20221C9
:104C20000820FBF7F4FF08210A20FBF7F0FF002122
:104C30003020FBF7ECFF40F202413120FBF7E7FFA9
:104C40004FF483713220FBF7E2FF40F2035133202F
:104C5000FBF7DDFF4FF482713420FBF7D8FF40F201
:104C600001313520FBF7D3FF40F207713620FBF707
:104C7000CEFF40F205313720FBF7C9FF4FF4027138
:104C80003820FBF7C4FF00E03EE040F60B7139200E
:104C9000FBF7BDFF02214120FBF7B9FF4FF41C5188
:104CA0006020FBF7B4FF01216120FBF7B0FF4FF458
:104CB00004719020FBF7ABFF4FF485719220FBF756
:104CC000A6FF04219320FBF7A2FF4FF48071A020E0
:104CD000FBF79DFF01210720FBF799FF212107200A
:104CE000FBF795FF23210720FBF791FF33210720D6
:104CF000FBF78DFF40F233110720FBF788FF0021FF
:104D0000A020FBF784FFB4E0FE48808844F23551D0
:104D10008842F8D130211520FBF779FF10219A2025
:104D2000FBF775FF20211120FBF771FF43F22841AB
:104D30001020FBF76CFF02211220FBF768FF41F205
:104D400038011320FBF763FF282000F02BFE12210F
:104D50000846FBF75CFF282000F024FE43F22041C8
:104D60001020FBF754FF43F238011320FBF74FFFED
:104D7000462000F017FE00213020FBF748FF40F2EC
:104D800002413120FBF743FF40F207313220FBF7AD
:104D90003EFF4FF441713320FBF739FF04213420EB
:104DA000FBF735FF40F201413520FBF730FF40F2C1
:104DB00007713620FBF72BFF40F205313720FBF758
:104DC00026FF4FF4C2613820FBF721FF4FF4C26188
:104DD0003920FBF71CFF4FF480710120FBF717FF10
:104DE0004FF440710220FBF712FF41F23001032023
:104DF000FBF70DFF40F608010820FBF708FF08212C
:104E00000A20FBF704FF4FF41C516020FBF7FFFE64
:104E100001216120FBF7FBFE4FF49F719020FBF70F
:104E2000F6FE4FF480719220FBF7F1FE4FF4807193
:104E30009320FBF7ECFE4FF44051A020FBF7E7FE78
:104E40001021A320FBF7E3FE01210720FBF7DFFE83
:104E500021210720FBF7DBFE23210720FBF7D7FEEC
:104E600033210720FBF7D3FE40F233110720FBF775
:104E7000CEFE0020FCF78DFA0120A34908604FF612
:104E8000FF70FCF702FC21B000BD2DE9FC4F054688
:104E90000E4617469846DDF82C9000200190994860
:104EA000808846F60401884229D1964880790128F5
:104EB00025D1AB46354693480088C01B401E86B2BC
:104EC000474690480088A0EB0B00401E1FFA80F870
:104ED00000208C4988712A2048812B2088814346F4
:104EE0003A4631462846CDF80090FFF7CEFF012024
:104EF000844988712B2048812A2088811DE0781BF5
:104F0000401C80B20190344615E021462846FBF74C
:104F1000B2FEFBF793FE4FF0000A07E04FF0D840D7
:104F2000A0F880900AF101001FFA80FA01988245EA
:104F3000F4DB601C84B24445E7DDBDE8FC8F2DE95D
:104F4000F84F07460D4690469946DDF828B0A8EB85
:104F50000700401C1FFA80FAA9EB0500401C80B234
:104F60000090002414E0281981B23846FBF783FE34
:104F7000FBF764FE002607E004FB0A603BF8100024
:104F800062490880701C86B25645F5DB601C84B20D
:104F900000988442E7DBBDE8F88F2DE9FF4F84B02D
:104FA00081468A460020039002900698A0EB0905EE
:104FB0000798A0EB0A06CDF80490CDF800A0002DCC
:104FC00001DD012705E00DB9002702E04FF0FF37B2
:104FD0006D42002E02DD4FF0010806E016B94FF0D9
:104FE000000802E04FF0FF387642B54201DD2C4662
:104FF00000E034464FF0000B21E0009A91B2019A94
:1050000090B2FCF72BF9039828440390029830449F
:1050100002900398A04205DD0398001B03900198BD
:10502000384401900298A04205DD0298001B0290CE
:105030000098404400900BF101001FFA80FB601CB7
:105040008345DADD08B0BDE8F08FF0B504460D46C3
:1050500016461F462B46324629462046FFF79DFF3F
:105060003B46224629462046FFF797FF3B463246FD
:1050700039462046FFF791FF3B46324629463046E7
:10508000FFF78BFFF0BD2DE9F04306460F46904633
:10509000002445460320A0EB480943E07A1B91B267
:1050A000321990B2FCF7DAF83A1B91B2721990B249
:1050B000FCF7D4F83A1991B2721990B2FCF7CEF815
:1050C0007A1991B2321990B2FCF7C8F87A1991B2F4
:1050D000321B90B2FCF7C2F83A1991B2721B90B22F
:1050E000FCF7BCF87A1B91B2321B90B2FCF7B6F811
:1050F0003A1B91B2721B90B2FCF7B0F8641CB9F184
:10510000000F05E068010020BC8240428000006C76
:1051100003DAA000801D814404E0601B80000A3097
:1051200081446D1EAC42B9DDBDE8F0832DE9F84F36
:1051300080460E4617461C46B3462046E31704EB4E
:105140005373DB1021464FEAE47C04EB5C7C4FEAAE
:10515000EC0CA4EBCC0CBCF1000F02D04FF0010C16
:1051600001E04FF0000C6344224604EBD27C4FEA8E
:105170006C0C03FB0CF3DBB20093A7F12000C7B269
:10518000002556E00C2C07D107EB47009F4901EBA7
:10519000800010F8059013E0102C05D19C4800EB1E
:1051A000071010F805900BE0182C07D107EBC7008B
:1051B000984901EB800010F8059001E0BDE8F88FF8
:1051C0004FF0000A2FE009F0800030B192480288C9
:1051D00031464046FCF750F807E00A9828B98F4856
:1051E000028831464046FCF747F84FEA49604FEAEB
:1051F0001069701C86B28A484088B04200DCDDE746
:10520000A6EB0B00A0420AD15E4608F101001FFA8E
:1052100080F883480088404500DCCFE706E00AF1CB
:10522000010000F0FF0ABAF1080FCCDB00BF681CD8
:10523000C5B200988542A5DB00BFBFE710B50246A6
:10524000012000E050430B00A1F10104E1B2F9D1CB
:1052500010BD2DE9FF4F81B0074691461E460E9DB9
:105260004FF0000A002439E0301B401EC1B20A2072
:10527000FFF7E4FFB9FBF0F00A21B0FBF1F201FB0C
:105280001208BAF1000F16D1701EA04213DDB8F15A
:10529000000F0ED10020AB4605EBDB71491001FB7E
:1052A0000471009088B22B4620220299FFF73EFF3E
:1052B00012E04FF0010A0020AB4605EBDB7149100C
:1052C00001FB0471009088B208F13001CAB22B468C
:1052D0000299FFF72BFF00BF601CC4B2B442C3DBCE
:1052E00005B0BDE8F08F2DE9FF4F82B0064692462B
:1052F0001F46DDE90F480020019000254DE0781B96
:10530000401EC1B20A20FFF799FFBAFBF0F00A2154
:10531000B0FBF1F201FB1209019850BB781EA842C4
:1053200027DDB9F1000F22D108F0800078B108F034
:105330000100A34604EBDB71491001FB05610090FD
:1053400088B2234630220399FFF7F0FE0EE008F002
:105350000100A34604EBDB71491001FB05610090DD
:1053600088B2234620220399FFF7E0FE13E00120D4
:10537000019008F00100A34604EBDB71491001FB2A
:105380000561009088B209F13001CAB22346039941
:10539000FFF7CCFE00BF681CC5B2BD42AFDB06B054
:1053A000BDE8F08F2DE9F84704460D469046994632
:1053B000DDE9096704F0FF0A08EB04001FFA80F832
:1053C00009EB05001FFA80F916E0444502DB54465C
:1053D000A81985B24D4500DB14E0002000903A7812
:1053E000334629462046FFF7A1FE304606EBD07132
:1053F00004EB61018CB27F1C38787E2802DC38789F
:105400002028E2DA00BFBDE8F887000074A7000892
:10541000E8AB0008D8B100081600002018000020F2
:105420006801002010B501211E4802F000FB68B1A0
:105430001D48008840F400401B490880012119489C
:1054400002F006FB0021174801F0C2FE10BD7FB537
:1054500005460C460121202001F04FFA0195ADF8D8
:1054600000400020ADF80800ADF8020069460D4884
:1054700001F025FE012211460A4802F0C1FA01217D
:10548000084801F0A5FE37208DF80C0000208DF8AB
:105490000D0001208DF80E008DF80F0003A800F01C
:1054A00070FB7FBD001400401A00002010B540F2D0
:1054B0002551594801F00CFD00B3574801F046FC56
:1054C000C4B25648008800F40040B8B95348008878
:1054D000B0F5C87F13DA0021514801F039FE4F487A
:1054E000008818B901214E4801F072FE4B4801882E
:1054F0000088401C494A10804A48445405E0474807
:10550000008840F400404549088010BD10B588B0BF
:1055100004460121022001F0A7F90121880401F0CD
:10552000ECF93D4801F0F4FA07220B213E4800F067
:10553000A4FC07220A213C4800F09FFC4FF4406085
:10554000059002208DF818008DF8190000208DF8C4
:105550001A0001208DF81B0005A9334800F002FC59
:1055600001940020ADF80800ADF80A00ADF80C0079
:10557000ADF810000C20ADF80E0001A9264801F08E
:105580002EFB0121244801F0B2FB012240F22551FB
:10559000214801F062FC27208DF81C0002208DF8C4
:1055A0001D0003208DF81E0001208DF81F0007A8A4
:1055B00000F0E7FA42F2CF016320FFF748FF002036
:1055C000164908800021164801F002FE08B010BDFF
:1055D0000FB438B505A800901448009A049903F058
:1055E000C3FB00200090114803F08AFD85B200241F
:1055F0000DE000BF4021084801F054FC0028F9D01C
:105600000A48015D044801F09DFB601C84B2AC4275
:10561000EFDB38BC5DF814FB004800401A000020A6
:10562000001400400803002000040240780100201C
:105630007CB50A2601250121242001F015F901205D
:10564000009000208DF8040003208DF80500012053
:105650008DF807006946844800F084FB40200090E4
:1056600001208DF8040000208DF8060003208DF83D
:10567000050001208DF8070069467C4800F072FBA8
:1056800040217A4800F0EAFB4FF41650FFF73EFF46
:1056900032E00120764908600A2000F083F975A005
:1056A000FFF796FF00207549C1F8980200240AE030
:1056B0007348008800F4004000B106E0052000F0C7
:1056C00071F9601CC4B20A2CF2DB00BF6C48008880
:1056D00000F4004080B16A480578002068490880DD
:1056E000042D09D1674800784F2805D165484078D6
:1056F0004B2801D1002504E03000A6F10101CEB213
:10570000C7D100BF06B9012528467CBD70B50F265C
:1057100030E00120564908600A2000F043F95AA001
:10572000FFF756FF00250AE00A2000F03BF9544835
:10573000008800F4004000B103E0681CC5B2142DDD
:10574000F2DB00BF00204A4908604D48008800F4A1
:10575000004078B14A4804780020494908800D2C5F
:1057600008D1484800782B2804D146488079303841
:10577000C4B204E03000A6F10101CEB2C9D100BF2D
:1057800006B9FF24204670BD2DE9F04105460F27DC
:105790002FE00120364908600A2000F003F929466D
:1057A0003CA0FFF715FF00203449C1F898020026FD
:1057B0000AE03348008800F4004000B106E005200C
:1057C00000F0F0F8701CC6B2142EF2DB00BF2C48BB
:1057D000008800F4004060B129480478002028497E
:1057E0000880042C05D1274800784F2801D10024D7
:1057F00004E03800A7F10101CFB2CAD100BF07B958
:10580000FF242046BDE8F08170B504460120184908
:1058100008600A2000F0C6F821461EA0FFF7D8FE57
:1058200000260AE01648008800F4004000B106E0B7
:105830000A2000F0B7F8701CC6B2322EF2DB00BFAF
:1058400000200B4908600E48008800F4004048B171
:105850000B48057800200A4908800A4948550FA0DE
:1058600003F094FA70BD00000008024000140240EA
:105870009882424241540D0A0000000000804242DA
:105880001A0000200803002041542B524F4C453F82
:105890000D0A000025730D0A000000000D0A257393
:1058A000000000001CB50121202000F0DDFF9E203B
:1058B000009001208DF8040000208DF806000320E0
:1058C0008DF8050002208DF807006946034800F0B6
:1058D00049FA9E21014800F0C3FA1CBD00140240A1
:1058E00010B504466FF0040000F098F9E11704EBDE
:1058F0005171C1F3C701394A11701046007800EBAD
:105900004001C1EBC0104FF6FF7101EAC0003449FD
:10591000088010BD0146314A12784A434FF0E02317
:105920005A6100229A611A46126942F001021A6114
:1059300000BF4FF0E022106900F001021AB100F43C
:105940008032002AF5D04FF0E022126922F00102E5
:105950004FF0E0231A6100229A6170470146204A05
:1059600012884A434FF0E0235A6100229A611A4696
:10597000126942F001021A6100BF4FF0E022106983
:1059800000F001021AB100F48032002AF5D04FF085
:10599000E022126922F001024FF0E0231A61002296
:1059A0009A61704770B504464FF4077094FBF0F0AD
:1059B000C6B24FF4077094FBF0F100FB114085B2C2
:1059C00005E04FF40770FFF7C9FF701EC6B2002E46
:1059D000F7D115B12846FFF7C1FF70BD1C000020AC
:1059E0001E000020014600BF704700BF4E4A1288CB
:1059F00002F04002002AF9D0C2B24B4B9A807047A5
:105A000010B588B004460121084600F02DFF0121A1
:105A1000102000F083FF07220921444800F02DFAEE
:105A200007220A21414800F028FA4FF4C06006908E
:105A300002208DF81C008DF81D0000208DF81E003E
:105A400001208DF81F0006A9384800F08BF9029458
:105A50000020ADF80C00ADF80E00ADF81000ADF868
:105A600014000C20ADF8120002A92F4801F0B7F87D
:105A700001212D4801F03BF940212B4801F01FFA8C
:105A8000012240F22551284801F0E7F925208DF840
:105A9000040003208DF805008DF8060001208DF824
:105AA000070001A800F06DF808B010BD10B540F275
:105AB00025511D4801F00CFA10B31B4801F046F9BE
:105AC000C4B21B48008800F40040C8B918480088D8
:105AD00000F4804060B10A2C03D0002014490880F3
